{
  "address": "0x06Dd56665D9939ae054a501Af009988c7d2CFB0e",
  "abi": [
    {
      "inputs": [
        {
          "internalType": "address",
          "name": "_address",
          "type": "address"
        }
      ],
      "stateMutability": "nonpayable",
      "type": "constructor"
    },
    {
      "inputs": [
        {
          "internalType": "address",
          "name": "",
          "type": "address"
        }
      ],
      "name": "FunderToAmount",
      "outputs": [
        {
          "internalType": "uint256",
          "name": "",
          "type": "uint256"
        }
      ],
      "stateMutability": "view",
      "type": "function"
    },
    {
      "inputs": [],
      "name": "PRICE_FEED",
      "outputs": [
        {
          "internalType": "contract AggregatorV3Interface",
          "name": "",
          "type": "address"
        }
      ],
      "stateMutability": "view",
      "type": "function"
    },
    {
      "inputs": [],
      "name": "fund",
      "outputs": [],
      "stateMutability": "payable",
      "type": "function"
    },
    {
      "inputs": [
        {
          "internalType": "uint256",
          "name": "",
          "type": "uint256"
        }
      ],
      "name": "funders",
      "outputs": [
        {
          "internalType": "address",
          "name": "",
          "type": "address"
        }
      ],
      "stateMutability": "view",
      "type": "function"
    },
    {
      "inputs": [],
      "name": "getValue",
      "outputs": [
        {
          "internalType": "uint256",
          "name": "",
          "type": "uint256"
        }
      ],
      "stateMutability": "view",
      "type": "function"
    }
  ],
  "transactionHash": "0xbc900eb59395df305ab5e3b7ab0bd937818253d99691940ea3f3d2a73f99c713",
  "args": [
    "0xE2362416604C80E741f04dD6ea75E8C1316608d6"
  ],
  "numDeployments": 3,
  "solcInputHash": "ff5cd23f827ecc8ce894efd1ceb3e1a1",
  "bytecode": "0x60c0604052603260a09081525034801561001857600080fd5b506040516105ab3803806105ab833981810160405281019061003a91906100cc565b3373ffffffffffffffffffffffffffffffffffffffff1660808173ffffffffffffffffffffffffffffffffffffffff1660601b81525050806000806101000a81548173ffffffffffffffffffffffffffffffffffffffff021916908373ffffffffffffffffffffffffffffffffffffffff16021790555050610147565b6000815190506100c681610130565b92915050565b6000602082840312156100e2576100e161012b565b5b60006100f0848285016100b7565b91505092915050565b60006101048261010b565b9050919050565b600073ffffffffffffffffffffffffffffffffffffffff82169050919050565b600080fd5b610139816100f9565b811461014457600080fd5b50565b60805160601c60a05161044261016960003960005050600050506104426000f3fe60806040526004361061004a5760003560e01c80630715ee1c1461004f578063209652551461008c57806331eb318a146100b7578063b60d4288146100e2578063dc0d3dff146100ec575b600080fd5b34801561005b57600080fd5b5061007660048036038101906100719190610212565b610129565b6040516100839190610312565b60405180910390f35b34801561009857600080fd5b506100a1610141565b6040516100ae9190610312565b60405180910390f35b3480156100c357600080fd5b506100cc61014a565b6040516100d991906102d7565b60405180910390f35b6100ea61016e565b005b3480156100f857600080fd5b50610113600480360381019061010e919061023f565b6101a9565b60405161012091906102bc565b60405180910390f35b60026020528060005260406000206000915090505481565b60006001905090565b60008054906101000a900473ffffffffffffffffffffffffffffffffffffffff1681565b6040517f08c379a00000000000000000000000000000000000000000000000000000000081526004016101a0906102f2565b60405180910390fd5b600181815481106101b957600080fd5b906000526020600020016000915054906101000a900473ffffffffffffffffffffffffffffffffffffffff1681565b6000813590506101f7816103de565b92915050565b60008135905061020c816103f5565b92915050565b600060208284031215610228576102276103b0565b5b6000610236848285016101e8565b91505092915050565b600060208284031215610255576102546103b0565b5b6000610263848285016101fd565b91505092915050565b6102758161033e565b82525050565b6102848161037a565b82525050565b600061029760058361032d565b91506102a2826103b5565b602082019050919050565b6102b681610370565b82525050565b60006020820190506102d1600083018461026c565b92915050565b60006020820190506102ec600083018461027b565b92915050565b6000602082019050818103600083015261030b8161028a565b9050919050565b600060208201905061032760008301846102ad565b92915050565b600082825260208201905092915050565b600061034982610350565b9050919050565b600073ffffffffffffffffffffffffffffffffffffffff82169050919050565b6000819050919050565b60006103858261038c565b9050919050565b60006103978261039e565b9050919050565b60006103a982610350565b9050919050565b600080fd5b7f6572726f72000000000000000000000000000000000000000000000000000000600082015250565b6103e78161033e565b81146103f257600080fd5b50565b6103fe81610370565b811461040957600080fd5b5056fea264697066735822122047c8366c9dcf6f3a746233ca0e8b40f1a04a7f1f20937036754131bc768db81064736f6c63430008070033",
  "devdoc": {
    "kind": "dev",
    "methods": {},
    "version": 1
  },
  "userdoc": {
    "kind": "user",
    "methods": {},
    "version": 1
  },
  "storageLayout": {
    "storage": [
      {
        "astId": 380,
        "contract": "contracts/FundMe.sol:FundMe",
        "label": "PRICE_FEED",
        "offset": 0,
        "slot": "0",
        "type": "t_contract(AggregatorV3Interface)102"
      },
      {
        "astId": 383,
        "contract": "contracts/FundMe.sol:FundMe",
        "label": "funders",
        "offset": 0,
        "slot": "1",
        "type": "t_array(t_address)dyn_storage"
      },
      {
        "astId": 387,
        "contract": "contracts/FundMe.sol:FundMe",
        "label": "FunderToAmount",
        "offset": 0,
        "slot": "2",
        "type": "t_mapping(t_address,t_uint256)"
      }
    ],
    "types": {
      "t_address": {
        "encoding": "inplace",
        "label": "address",
        "numberOfBytes": "20"
      },
      "t_array(t_address)dyn_storage": {
        "base": "t_address",
        "encoding": "dynamic_array",
        "label": "address[]",
        "numberOfBytes": "32"
      },
      "t_contract(AggregatorV3Interface)102": {
        "encoding": "inplace",
        "label": "contract AggregatorV3Interface",
        "numberOfBytes": "20"
      },
      "t_mapping(t_address,t_uint256)": {
        "encoding": "mapping",
        "key": "t_address",
        "label": "mapping(address => uint256)",
        "numberOfBytes": "32",
        "value": "t_uint256"
      },
      "t_uint256": {
        "encoding": "inplace",
        "label": "uint256",
        "numberOfBytes": "32"
      }
    }
  }
}